:020000000328D3
:100006008316031386018801013083128600880156
:100016000330FC009730FD00FD0B0F28FC0B0F286A
:100026000000000042308600FE3088000330FC00ED
:100036009730FD00FD0B1D28FC0B1D28000000005D
:1000460004308600FD3088000330FC009730FD0048
:10005600FD0B2B28FC0B2B28000000000830860027
:10006600FB3088000330FC009730FD00FD0B39287B
:10007600FC0B39280000000010308600FB30880099
:100086000330FC009730FD00FD0B4728FC0B47288A
:100096000000000020308600FD3088000330FC00A0
:1000A6009730FD00FD0B5528FC0B5528000000007D
:1000B6008030860088010330FC009730FD00FD0B80
:0E00C6006228FC0B6228000000000728692851
:02400E007A3BFB
:00000001FF
